:020000040000FA
:100000000F015B6B5C6B5D6B926A936A9468896AA3
:100010008A6A16EF00F082A00BEF00F082A20BEFCD
:1000200000F082A40BEF00F0ABEC00F082A021EF17
:1000300000F082A239EF00F082A470EF00F016EF1A
:1000400000F082A021EF00F0ABEC00F0899E899CCB
:10005000899A898882A00BEF00F082A239EF00F024
:1000600082A470EF00F082AC8DEC00F082AE94ECD4
:1000700000F082A239EF00F0ABEC00F0899E899C81
:10008000898A89980A6A0AC08AFF82AC4DEF00F01B
:1000900082AE55EF00F03EEF00F082AC4DEF00F085
:1000A000ABEC00F00A2A5DEF00F082AE55EF00F0F5
:1000B000ABEC00F00A065DEF00F00AC08AFF82A0F8
:1000C00021EF00F082A20BEF00F082A470EF00F0AD
:1000D00082AC9BEC00F082AEA3EC00F05DEF00F090
:1000E00082A470EF00F0ABEC00F0899E898C899AB5
:1000F00089980A6A0AC08AFF82A021EF00F082A2D2
:1001000039EF00F082A40BEF00F082AC9BEC00F022
:1001100082AEA3EC00F07AEF00F082AC8DEF00F03D
:10012000ABEC00F00A2A120082AE94EF00F0ABECC8
:1001300000F00A06120082AC9BEF00F0ABEC00F07E
:100140000A2A0A2A120082AEA3EF00F0ABEC00F0FC
:100150000A060A061200000E146E1A0E156E142EF0
:0C016000AFEF00F0152EAFEF00F0120022
:02016C00000091
:020000040030CA
:0100000000FF
:0100010028D6
:010002005F9E
:010003003CC0
:01000500D327
:010006008574
:00000001FF
