:020000040000FA
:0400000000EF08F015
:020004000000FA
:0400080004EF08F009
:040018000CEF08F0F1
:041000000CEF08F0F9
:081018000F015C6B5D6B5B6B6B
:101020009468936A926A8A6A896A206A2080898EA3
:1010300020C08AFFBAEC08F08A6ABAEC08F082A0F5
:101040002AEC08F082A231EC08F082A438EC08F017
:1010500017EF08F0C4EC08F082B03FEC08F02AEF7C
:1010600008F0C4EC08F082B252EF08F031EF08F05B
:10107000C4EC08F082B465EF08F038EF08F0899E00
:10108000898C899A899820C08AFFBAEC08F082AED0
:1010900090EC08F082A0A5EC08F020C021F02046DA
:1010A0003FEF08F0899E899C898A899820C08AFF31
:1010B000BAEC08F082AE90EC08F082A2ACEC08F03A
:1010C00020C021F0204252EF08F0899E899C899A25
:1010D000898820C08AFFBAEC08F077EC08F082AE6D
:1010E00090EC08F082A4B3EC08F065EF08F0215012
:1010F000206487EF08F07EEF08F0120081BE87EFD2
:1011000008F020C021F0204620C081FF120081B0ED
:101110007EEF08F020C021F0204220C081FF1200A5
:10112000C4EC08F082AE90EF08F020C08AFFBAEC61
:1011300008F08A6ABAEC08F082BE95EF08F0C4ECB9
:1011400008F082AE9FEF08F01200C4EC08F082A015
:10115000A5EF08F017EF08F0C4EC08F082A2ACEF9E
:1011600008F017EF08F0C4EC08F082A4B3EF08F021
:1011700017EF08F0FF0E156E166E162EBDEF08F075
:10118000152EBDEF08F01200000E136EEB0E146E5C
:10119000142AD8A4C8EF08F0132AD8A4C6EF08F080
:0211A00012003B
:020000040030CA
:0100000000FF
:0100010028D6
:010002005F9E
:010003003CC0
:01000500D327
:010006008574
:00000001FF
