:020000040000FA
:0400000018EF00F005
:020008001000E6
:020018001000D6
:0E0030000F015B6B926A5C6B9368F19E85809A
:02003E000000C0
:100040003F0E896E81B020EF00F068EC00F0060EE4
:10005000896E81B027EF00F068EC00F05B0E896ECE
:1000600081B02EEF00F068EC00F04F0E896E81B089
:1000700035EF00F068EC00F0660E896E81B03CEF61
:1000800000F068EC00F06D0E896E81B043EF00F077
:1000900068EC00F07D0E896E81B04AEF00F068ECEC
:1000A00000F0070E896E81B051EF00F068EC00F0AF
:1000B0007F0E896E81B058EF00F068EC00F06F0E93
:1000C000896E81B05FEF00F068EC00F020EF00F087
:0800D00081A068EF00F01200AE
:00000001FF
