:020000040000FA
:0400000018EF00F005
:020004000000FA
:020008001000E6
:020018001000D6
:100030000F015B6B5C6BF19E030E936E856E926A93
:10004000896A25EC00F021EF00F0FB0E8A6E81A09A
:100050003EEC00F081A244EC00F0F70E8A6E81A025
:1000600050EC00F081A25CEC00F0EF0E8A6E81A0F3
:1000700068EC00F081A26EEC00F0120081A03EEF6F
:1000800000F0B3EC00F01200898481A244EF00F08C
:100090008994206A2084B3EC00F094EC00F0120004
:1000A000898681A050EF00F08996206A2086B3EC03
:1000B00000F094EC00F01200898081A25CEF00F067
:1000C0008990206A2080B3EC00F094EC00F01200DC
:1000D00081A068EF00F0B3EC00F01200898281A2E9
:1000E0006EEF00F08992206A2082B3EC00F094EC6D
:1000F00000F012008988A8EC00F0A8EC00F0A8EC51
:1001000000F0A8EC00F0A8EC00F089981200898AB1
:10011000A8EC00F0A8EC00F0A8EC00F0A8EC00F0CF
:10012000A8EC00F0899A1200216A21802150205CFD
:10013000E850D8B49FEF00F07AEC00F0120087ECA2
:1001400000F01200210E116E112EA4EF00F012002B
:10015000000E116E800E126E112EACEF00F0122EFA
:10016000ACEF00F01200000E256E1A0E266E252E42
:0C017000B7EF00F0262EB7EF00F01200F1
:00000001FF
