:020000040000FA
:040000000DEF00F010
:020004000000FA
:020008001000E6
:020018001000D6
:100030000F0E5B6B5E6B926A9568896A83A054EFC2
:1000400000F083A25BEF00F083A462EF00F083A6D0
:100050006AEF00F083A872EF00F01EEF00F083A0BB
:1000600054EF00F083A25BEF00F083A462EF00F096
:1000700083A66AEF00F083A872EF00F0120000C0C0
:10008000D5FF01C0D6FF02C0D7FF0000D58E49EFD3
:1000900000F0F2A4FED7897EF29401C0D6FF02C020
:1000A000D7FF2FEC00F0F5D7450E006E3D0E016E28
:1000B000026A3FEF00F0470E006E0C0E016E026AFE
:1000C0003FEF00F0000E006EDC0E016E0B0E026EB4
:1000D0003FEF00F0010E006EDC0E016E0B0E026EA3
:1000E0003FEF00F0070E006EFF0E016EFF0E026E76
:1000F0003FEF00F0000E106E1A0E116E102E7EEF04
:0A01000000F0112E7EEF00F0120057
:00000001FF
