:020000040000FA
:040000000DEF00F010
:020004000000FA
:020008001000E6
:020018001000D6
:100030000F015B6B5C6B926A9368896A81A054EFD5
:1000400000F081A25FEF00F081A46AEF00F081A6CA
:1000500076EF00F081A882EF00F01EEF00F081A0A3
:1000600054EF00F081A25FEF00F081A46AEF00F08E
:1000700081A676EF00F081A882EF00F0120000C0A8
:10008000D5FF01C0D6FF02C0D7FFF294D58E49EF4D
:1000900000F0F2A4FED7897EF29401C0D6FF02C020
:1000A000D7FF2FEC00F0F5D781A0FED7450E006EEC
:1000B0003D0E016E026A8EEC00F03FEF00F081A26F
:1000C000FED7470E006E0C0E016E026A8EEC00F039
:1000D0003FEF00F081A4FED7000E006EDC0E016E33
:1000E0000B0E026E8EEC00F03FEF00F081A6FED703
:1000F000010E006EDC0E016E0B0E026E8EEC00F037
:100100003FEF00F081A8FED7070E006E000E016ED3
:10011000000E026E8EEC00F03FEF00F0000E106E4D
:100120001A0E116E102E92EF00F0112E92EF00F0C9
:020130001200BB
:020000040030CA
:0100000000FF
:0100010028D6
:010002005F9E
:010003003CC0
:01000500D327
:010006008574
:00000001FF
