:020000040000FA
:0400000018EF00F005
:020004000000FA
:020008001000E6
:020018001000D6
:100030000F015B6B5C6BF19E030E936E856E926A93
:10004000896A25EC00F021EF00F0FB0E8A6E81A09A
:100050003FEF00F081A248EF00F0F70E8A6E81A01A
:1000600052EF00F081A25CEF00F0EF0E8A6E81A0EB
:1000700066EF00F081A26FEF00F025EF00F0898AB3
:1000800081A03FEF00F0899A206A79EC00F012001D
:10009000898481A248EF00F08994206A208479EC59
:1000A00000F01200898681A052EF00F08996206A44
:1000B000208679EC00F01200898081A25CEF00F0CC
:1000C0008990206A208079EC00F01200898881A054
:1000D00066EF00F08998206A79EC00F012008982BE
:1000E00081A26FEF00F08992206A208279EC00F003
:1000F0001200000E256E1A0E266E252E7DEF00F0E2
:08010000262E7DEF00F0120035
:00000001FF
