:020000040000FA
:040000000DEF00F010
:020004000000FA
:020008001000E6
:020018001000D6
:100040000F01F19E5C6B0F0E936E856E5D6B946A73
:100050005E6B956A106A166A176A186A8B94F3ECDD
:1000600001F0380EC4EC01F0060EC4EC01F0140EE1
:10007000C4EC01F00F0EC4EC01F0010EC4EC01F071
:10008000000E1A6E8AEC00F013C010F014C012F0CB
:100090001252D8B440EF00F0010EC4EC01F013503E
:1000A000ABEC01F01750BEEC01F01850BEEC01F0C3
:1000B0001950C8EC01F0030E1A6E8AEC00F013C060
:1000C00011F01252D8B440EF00F011503D0EC8ECC0
:1000D00001F0400EE88EC4EC01F012BE7CEC01F0A1
:1000E00012BC80EC01F012BA8DEC01F012B892EC67
:1000F00001F01252D8B440EF00F010C013F01050CD
:10010000ABEC01F01750BEEC01F01850BEEC01F062
:1001100040EF00F0EF0E8A6E81A0C4EF00F081A2E4
:10012000E2EF00F081A400EF01F081A663EF01F09F
:10013000DF0E8A6E81A0CEEF00F081A2ECEF00F01E
:1001400081A40AEF01F081A61EEF01F0BF0E8A6EB6
:1001500081A0D8EF00F081A2F6EF00F081A414EFA7
:1001600001F081A669EF01F07F0E8A6E81A037EF62
:1001700001F081A242EF01F081A44DEF01F081A6D0
:1001800058EF01F08AEF00F081A0C4EF00F0010EFB
:10019000136E896EE8EC01F028EF01F081A0CEEF3C
:1001A00000F0020E136E896EE8EC01F028EF01F00A
:1001B00081A0D8EF00F0030E136E896EE8EC01F019
:1001C00028EF01F081A2E2EF00F0040E136E896EB9
:1001D000E8EC01F028EF01F081A2ECEF00F0050E51
:1001E000136E896EE8EC01F028EF01F081A2F6EFC2
:1001F00000F0060E136E896EE8EC01F028EF01F0B6
:1002000081A400EF01F0070E136E896EE8EC01F097
:1002100028EF01F081A40AEF01F0080E136E896E39
:10022000E8EC01F028EF01F081A414EF01F0090ED1
:10023000136E896EE8EC01F028EF01F081A61EEF45
:1002400001F0000E136E896EE8EC01F028EF01F06A
:100250001A50E88EC4EC01F01350ABEC01F01750CB
:10026000BEEC01F01850BEEC01F08AEF00F081A066
:1002700037EF01F0800E146E2B0E196E896EE8ECCC
:1002800001F0120081A242EF01F0400E146E2D0E1B
:10029000196E896EE8EC01F0120081A44DEF01F0B7
:1002A000200E146E2A0E196E896EE8EC01F0120011
:1002B00081A658EF01F0100E146E2F0E196E896E84
:1002C000E8EC01F0120081A663EF01F0E8EC01F028
:1002D000120081A669EF01F0E86A106A116A126AD9
:1002E000136A146A166A176A186A896AE8EC01F0D8
:1002F000010EC4EC01F0120010501124106E120017
:100300001150105CE86ED8B888EF01F0106E120042
:100310001050115C106E108E120010501102F3CFAD
:1003200010F012001152D8B4A3EF01F0156A115069
:10033000105E1052D8B8A0EF01F0152A98EF01F026
:1003400015C010F01200FF0E896EBF0E81A669EF76
:1003500001F0A6EF01F0166E156A0A0E16C018F02D
:10036000165E1652D8B8B8EF01F0152AAEEF01F0BC
:1003700015C016F015C017F018501200206E300E80
:100380002024C8EC01F012008B908B92D0EF01F08A
:100390008B808B92D0EF01F08B808B82D0EF01F0BD
:1003A0008B848C6E00008B94D7EC01F01200958E3C
:1003B0008B908B828B84000083BEDCEF01F08B94EA
:1003C000959E1200210E206E202EE4EF01F0120007
:1003D000000E236E1A0E246E232EECEF01F0242E55
:1003E000ECEF01F01200000E206E800E216E202E28
:0C03F000F7EF01F0212EF7EF01F01200F2
:020000040030CA
:0100000000FF
:0100010028D6
:010002005F9E
:010003003CC0
:01000500D327
:010006008574
:00000001FF
