:020000040000FA
:040000000DEF00F010
:020004000000FA
:020008001000E6
:020018001000D6
:100040000F01F19E5C6B0F0E936E856E5D6B946A73
:100050005E6B956A106A166A176A186A8B9405ECCB
:1000600002F0380ED6EC01F0060ED6EC01F0140EBC
:10007000D6EC01F00F0ED6EC01F0010ED6EC01F03B
:10008000000E1A6E8AEC00F013C010F014C012F0CB
:100090001252D8B440EF00F0010ED6EC01F013502C
:1000A000BDEC01F01750D0EC01F01850D0EC01F08D
:1000B0001950DAEC01F0030E1A6E8AEC00F013C04E
:1000C00011F01252D8B440EF00F011503D0EDAECAE
:1000D00001F0400EE88ED6EC01F012BE7CEC01F08F
:1000E00012BC80EC01F012BA8DEC01F012B892EC67
:1000F00001F01252D8B440EF00F010C013F01050CD
:10010000BDEC01F01750D0EC01F01850D0EC01F02C
:1001100040EF00F0EF0E8A6E81A0C4EF00F081A2E4
:10012000E2EF00F081A400EF01F081A663EF01F09F
:10013000DF0E8A6E81A0CEEF00F081A2ECEF00F01E
:1001400081A40AEF01F081A61EEF01F0BF0E8A6EB6
:1001500081A0D8EF00F081A2F6EF00F081A414EFA7
:1001600001F081A669EF01F07F0E8A6E81A037EF62
:1001700001F081A242EF01F081A44DEF01F081A6D0
:1001800058EF01F08AEF00F081A0C4EF00F0010EFB
:10019000136E896EFAEC01F028EF01F081A0CEEF2A
:1001A00000F0020E136E896EFAEC01F028EF01F0F8
:1001B00081A0D8EF00F0030E136E896EFAEC01F007
:1001C00028EF01F081A2E2EF00F0040E136E896EB9
:1001D000FAEC01F028EF01F081A2ECEF00F0050E3F
:1001E000136E896EFAEC01F028EF01F081A2F6EFB0
:1001F00000F0060E136E896EFAEC01F028EF01F0A4
:1002000081A400EF01F0070E136E896EFAEC01F085
:1002100028EF01F081A40AEF01F0080E136E896E39
:10022000FAEC01F028EF01F081A414EF01F0090EBF
:10023000136E896EFAEC01F028EF01F081A61EEF33
:1002400001F0000E136E896EFAEC01F028EF01F058
:100250001A50E88ED6EC01F01350BDEC01F01750A7
:10026000D0EC01F01850D0EC01F08AEF00F081A042
:1002700037EF01F0800E146E2B0E196E896EFAECBA
:1002800001F0120081A242EF01F0400E146E2D0E1B
:10029000196E896EFAEC01F0120081A44DEF01F0A5
:1002A000200E146E2A0E196E896EFAEC01F01200FF
:1002B00081A658EF01F0100E146E2F0E196E896E84
:1002C000FAEC01F0120081A663EF01F0FAEC01F004
:1002D000120081A669EF01F0E86A106A116A126AD9
:1002E000136A146A166A176A186A896AFAEC01F0C6
:1002F000010ED6EC01F0120010501124106E120005
:100300001150105CE86ED8B888EF01F0106E120042
:100310001050115C106E108E120010501102F3CFAD
:1003200010F012001152D8B4A3EF01F0156A115069
:10033000105E1052D8B8A0EF01F0152A98EF01F026
:1003400015C010F01200400EE88ED6EC01F0450EFC
:10035000DAEC01F0520EDAEC01F0520EDAEC01F0B8
:100360004F0EDAEC01F0520EDAEC01F0BF0E8A6E9D
:1003700081A669EF01F0B8EF01F0166E156A0A0E5A
:1003800016C018F0165E1652D8B8CAEF01F0152A3A
:10039000C0EF01F015C016F015C017F0185012008C
:1003A000206E300E2024DAEC01F012008B908B923C
:1003B000E2EF01F08B808B92E2EF01F08B808B8279
:1003C000E2EF01F08B848C6E00008B94E9EC01F07D
:1003D0001200958E8B908B828B84000083BEEEEF93
:1003E00001F08B94959E1200210E206E202EF6EFC8
:1003F00001F01200000E236E1A0E246E232EFEEF63
:1004000001F0242EFEEF01F01200000E206E800E8F
:10041000216E202E09EF02F0212E09EF02F01200CA
:020000040030CA
:0100000000FF
:0100010028D6
:010002005F9E
:010003003CC0
:01000500D327
:010006008574
:00000001FF
