:020000040000FA
:0400000010EF00F00D
:020004000000FA
:040008000DEF00F008
:080018001000F2948A70100040
:100030000F015C6B5D6B936A94688A6A000ED56EE3
:10004000DC0ED66E0B0ED76EF28EF28AF294900E04
:10005000AB6EAC6A0C0EAF6E320ED36E9EAAFED79C
:10006000AE503008D8B450EF00F0AE503108D8B4DC
:1000700053EF00F0AE503208D8B458EF00F0AE5055
:100080003308D8B45DEF00F0AE503408D8B462EF56
:1000900000F0AE503508D8B467EF00F06CEF00F018
:1000A0008A6A2EEF00F0D59E8A6A8A802EEF00F0D1
:1000B000D59E8A6A8A822EEF00F0D59E8A6A8A844B
:1000C0002EEF00F0D59E8A6A8A862EEF00F0D59E2C
:1000D0008A6A8A882EEF00F0000ED56E0B0ED76E5E
:0E00E000DC0ED66ED58E8A6A8A802EEF00F076
:020000040030CA
:0100000000FF
:0100010028D6
:010002005F9E
:010003003CC0
:01000500D327
:010006008574
:00000001FF
