:020000040000FA
:0400000018EF00F005
:020004000000FA
:020008001000E6
:020018001000D6
:100030000F015B6B5C6BF19E0F0E936E856E926A87
:10004000896A106A10C089FF4AEC00F013C010F0F2
:1000500014C012F01252D8B422EF00F04AEC00F0B3
:1000600013C011F01252D8B422EF00F012BE1FECF0
:1000700001F012BC23EC01F012BA30EC01F012B81E
:1000800035EC01F01252D8B422EF00F010C013F09A
:1000900022EF00F0EF0E8A6E81A084EF00F081A2C3
:1000A000A2EF00F081A4C0EF00F081A60CEF01F0F8
:1000B000DF0E8A6E81A08EEF00F081A2ACEF00F01F
:1000C00081A4CAEF00F081A6DEEF00F0BF0E8A6EB9
:1000D00081A098EF00F081A2B6EF00F081A4D4EFE8
:1000E00000F081A612EF01F07F0E8A6E81A0E8EF8A
:1000F00000F081A2F1EF00F081A4FAEF00F081A6F8
:1001000003EF01F04AEF00F081A084EF00F0010E50
:10011000136E896E4AEC01F04AEF00F081A08EEF79
:1001200000F0020E136E896E4AEC01F04AEF00F007
:1001300081A098EF00F0030E136E896E4AEC01F077
:100140004AEF00F081A2A2EF00F0040E136E896E58
:100150004AEC01F04AEF00F081A2ACEF00F0050E8E
:10016000136E896E4AEC01F04AEF00F081A2B6EFFF
:1001700000F0060E136E896E4AEC01F04AEF00F0B3
:1001800081A4C0EF00F0070E136E896E4AEC01F0F7
:100190004AEF00F081A4CAEF00F0080E136E896EDA
:1001A0004AEC01F04AEF00F081A4D4EF00F0090E10
:1001B000136E896E4AEC01F04AEF00F081A6DEEF83
:1001C00000F0000E136E896E4AEC01F04AEF00F069
:1001D00081A0E8EF00F0800E146E896E4AEC01F009
:1001E000120081A2F1EF00F0400E146E896E4AEC0D
:1001F00001F0120081A4FAEF00F0200E146E896E57
:100200004AEC01F0120081A603EF01F0100E146E0B
:10021000896E4AEC01F0120081A60CEF01F04AEC65
:1002200001F0120081A612EF01F0E86A106A116A6B
:10023000126A136A146A896A4AEC01F012001050BB
:100240001124106E12001150105CE86ED8B82BEF1C
:1002500001F0106E12001050115C106E108E120022
:1002600010501102F3CF10F012001152D8B447EF22
:1002700001F0000E156E1150105E1052D8B844EF08
:1002800001F0152A3CEF01F015C010F01200FF0E2E
:10029000106E1200000E206E1A0E216E202E4EEFF0
:0A02A00001F0212E4EEF01F01200D4
:020000040030CA
:0100000000FF
:0100010028D6
:010002005F9E
:010003003CC0
:01000500D327
:010006008574
:00000001FF
