:020000040000FA
:0400000018EF00F005
:020004000000FA
:020008001000E6
:020018001000D6
:100030000F015B6B5C6BF19E0F0E936E856E926A87
:10004000896AEF0E8A6E81A05BEF00F081A27FEFDC
:1000500000F081A4A3EF00F081A6C7EF00F0DF0E4F
:100060008A6E81A064EF00F081A288EF00F081A485
:10007000ACEF00F081A6D0EF00F0BF0E8A6E81A039
:100080006DEF00F081A291EF00F081A4B5EF00F0D8
:1000900081A6D9EF00F07F0E8A6E81A076EF00F086
:1000A00081A29AEF00F081A4BEEF00F081A6E2EFFA
:1000B00000F021EF00F081A65BEF00F0010E896EE9
:1000C000EBEC00F021EF00F081A664EF00F0020EEF
:1000D000896EEBEC00F021EF00F081A66DEF00F0EF
:1000E000030E896EEBEC00F021EF00F081A676EFB5
:1000F00000F00A0E896EEBEC00F021EF00F081A415
:100100007FEF00F0040E896EEBEC00F021EF00F0C1
:1001100081A488EF00F0050E896EEBEC00F021EF72
:1001200000F081A491EF00F0060E896EEBEC00F078
:1001300021EF00F081A49AEF00F00B0E896EEBEC3A
:1001400000F021EF00F081A2A3EF00F0070E896E0E
:10015000EBEC00F021EF00F081A2ACEF00F0080E14
:10016000896EEBEC00F021EF00F081A2B5EF00F01A
:10017000090E896EEBEC00F021EF00F081A2BEEFDA
:1001800000F00C0E896EEBEC00F021EF00F081A086
:10019000C7EF00F0F00E896EEBEC00F021EF00F0FD
:1001A00081A0D0EF00F0000E896EEBEC00F021EFA3
:1001B00000F081A0D9EF00F00F0E896EEBEC00F09B
:1001C00021EF00F081A0E2EF00F00D0E896EEBEC64
:1001D00000F021EF00F0000E206E1A0E216E202E8E
:0C01E000EFEF00F0212EEFEF00F0120016
:020000040030CA
:0100000000FF
:0100010028D6
:010002005F9E
:010003003CC0
:01000500D327
:010006008574
:00000001FF
