:020000040000FA
:0400000018EF00F005
:020004000000FA
:020008001000E6
:020018001000D6
:100030000F015B6B5C6B5D6B5E6BF19E030E936EF1
:10004000856E926A946A956A896A8B6A8C6ABB6AC1
:10005000040EBA6E300E056E0A900A920A9452EFA0
:1000600006F0210E006E002E33EF00F01200000E9D
:10007000006E800E016E002E3BEF00F0012E3BEF74
:1000800000F01200000E036E1A0E046E032E46EFEF
:1000900000F0042E46EF00F01200000E206E216EDC
:1000A000050E226E110E236E202E54EF00F0212E2D
:1000B00054EF00F0222E54EF00F0202E5DEF00F000
:1000C000232E5DEF00F01200070ED56EB30ED76E33
:1000D000B40EF294D66ED58EF2B47BEF00F052ECF3
:1000E00005F00AB485EF00F00AB212000AB081EF01
:1000F00000F06CEF00F0D5EC00F027EC04F04DECD4
:1001000000F0D4EC05F04DEC00F0A5EC01F06DEC46
:1001100002F04DEC00F0BBEC03F04DEC00F00A8077
:100120004DEC00F01200C7EC05F00DEC01F027ECEF
:1001300003F04DEC00F054EC04F04DEC00F0120034
:100140008B908B92ACEF00F08B808B92ACEF00F039
:100150008B808B82ACEF00F08B848C6E31EC00F0E6
:100160008B9431EC00F01200958E8B908B828B84F7
:10017000000037EC00F083BEB9EF00F08B94959E41
:1001800012008B9437EC00F0380EA0EC00F00C0E4F
:10019000A0EC00F037EC00F01C0EA0EC00F0010E1B
:1001A000A0EC00F037EC00F01200000EE88CA0ECA0
:1001B00000F0DCEC00F01200000EA4EC00F0060EE3
:1001C000A4EC00F0060EA4EC00F0000EA4EC00F08D
:1001D000010EA4EC00F0060EA4EC00F0080EA4EC56
:1001E00000F0000EA4EC00F0000EA4EC00F00C0EE9
:1001F000A4EC00F00C0EA4EC00F0000EA4EC00F057
:10020000100EA4EC00F00C0EA4EC00F0020EA4EC16
:1002100000F0000EA4EC00F01200000EE88CA0EC40
:1002200000F014EC01F01200000EA4EC00F0000E3F
:10023000A4EC00F0000EA4EC00F0000EA4EC00F022
:10024000000EA4EC00F0000EA4EC00F0040EA4ECF0
:1002500000F00E0EA4EC00F0000EA4EC00F0000E76
:10026000A4EC00F0000EA4EC00F0000EA4EC00F0F2
:10027000040EA4EC00F00E0EA4EC00F0150EA4EC9D
:1002800000F0040EA4EC00F0000EA4EC00F0000E50
:10029000A4EC00F0040EA4EC00F00E0EA4EC00F0B0
:1002A000150EA4EC00F0040EA4EC00F0040EA4EC77
:1002B00000F0040EA4EC00F0040EA4EC00F00E0E0E
:1002C000A4EC00F0150EA4EC00F0040EA4EC00F079
:1002D000040EA4EC00F0040EA4EC00F0040EA4EC58
:1002E00000F0000EA4EC00F0150EA4EC00F0040EDB
:1002F000A4EC00F0040EA4EC00F0040EA4EC00F05A
:10030000040EA4EC00F0000EA4EC00F0000EA4EC2F
:1003100000F0000EA4EC00F0040EA4EC00F0040EBB
:10032000A4EC00F0040EA4EC00F0000EA4EC00F02D
:10033000000EA4EC00F0000EA4EC00F0000EA4EC03
:1003400000F0000EA4EC00F01200000EE88CA0EC0F
:1003500000F0ACEC01F01200030EA4EC00F00F0E64
:10036000A4EC00F00F0EA4EC00F01F0EA4EC00F0C3
:100370001F0EA4EC00F01D0EA4EC00F0190EA4EC6E
:1003800000F01B0EA4EC00F0100EA4EC00F01C0E0C
:10039000A4EC00F01C0EA4EC00F01E0EA4EC00F087
:1003A0001E0EA4EC00F00E0EA4EC00F0060EA4EC61
:1003B00000F0160EA4EC00F00F0EA4EC00F00E0EF0
:1003C000A4EC00F0070EA4EC00F0040EA4EC00F086
:1003D000050EA4EC00F0050EA4EC00F0070EA4EC52
:1003E00000F0030EA4EC00F01C0EA4EC00F01C0EB8
:1003F000A4EC00F0180EA4EC00F0080EA4EC00F041
:10040000080EA4EC00F0080EA4EC00F0180EA4EC0A
:1004100000F0100EA4EC00F01C0EA4EC00F0100E86
:10042000A4EC00F0100EA4EC00F0000EA4EC00F020
:10043000000EA4EC00F0020EA4EC00F0060EA4ECFA
:1004400000F0040EA4EC00F00F0EA4EC00F0030E7C
:10045000A4EC00F0030EA4EC00F0010EA4EC00F0FC
:10046000010EA4EC00F0110EA4EC00F0190EA4ECA7
:1004700000F0090EA4EC00F0100EA4EC00F0110E38
:10048000A4EC00F0180EA4EC00F01B0EA4EC00F09D
:100490001A0EA4EC00F01A0EA4EC00F0180EA4EC56
:1004A00000F01C0EA4EC00F0030EA4EC00F0030E10
:1004B000A4EC00F0070EA4EC00F0170EA4EC00F082
:1004C000170EA4EC00F0170EA4EC00F0070EA4EC3D
:1004D00000F00F0EA4EC00F01200010EA0EC00F0F2
:1004E00037EC00F0010EE88EA0EC00F0000EA4EC5A
:1004F00000F0010EA4EC00F0040EA4EC00F0050ED8
:10050000A4EC00F0060EE88EA0EC00F0470EA4EC80
:1005100000F0410EA4EC00F04D0EA4EC00F0450EEE
:10052000A4EC00F00B0EE88EA0EC00F0000EA4ECA2
:1005300000F0010EA4EC00F0040EA4EC00F0050E97
:10054000A4EC00F0100EE88EA0EC00F0470EA4EC36
:1005500000F0410EA4EC00F04D0EA4EC00F0450EAE
:10056000A4EC00F0150EE88EA0EC00F0000EA4EC58
:1005700000F0010EA4EC00F0040EA4EC00F0050E57
:10058000A4EC00F0410EE88EA0EC00F0020EA4EC0A
:1005900000F0030EA4EC00F0060EA4EC00F0070E31
:1005A000A4EC00F0460EE88EA0EC00F04F0EA4EC98
:1005B00000F0560EA4EC00F0450EA4EC00F0520E34
:1005C000A4EC00F04B0EE88EA0EC00F0020EA4ECC0
:1005D00000F0030EA4EC00F0060EA4EC00F0070EF1
:1005E000A4EC00F0500EE88EA0EC00F04F0EA4EC4E
:1005F00000F0560EA4EC00F0450EA4EC00F0520EF4
:10060000A4EC00F0550EE88EA0EC00F0020EA4EC75
:1006100000F0030EA4EC00F0060EA4EC00F0070EB0
:10062000A4EC00F0F00E086E37EC00F0180EA0EC11
:1006300000F0083E14EF03F0F00E086E37EC00F007
:100640001C0EA0EC00F0083E1EEF03F01200010E9D
:10065000A0EC00F037EC00F0440EE88EA0EC00F0C7
:100660004C0EA4EC00F0450EA4EC00F0560EA4ECE9
:1006700000F0450EA4EC00F04C0EA4EC00F04A0E85
:10068000E88EA0EC00F0550EA4EC00F0500EA4ECA7
:1006900000F0020E026E020EE88EA0EC00F0000EDA
:1006A000A4EC00F037EC00F00D0EE88EA0EC00F0AA
:1006B000000EA4EC00F037EC00F0020EE88EA0EC87
:1006C00000F0010EA4EC00F037EC00F00D0EE88E07
:1006D000A0EC00F0010EA4EC00F037EC00F0020EEC
:1006E000E88EA0EC00F0020EA4EC00F037EC00F075
:1006F0000D0EE88EA0EC00F0020EA4EC00F037EC3A
:1007000000F0020EE88EA0EC00F0030EA4EC00F066
:1007100037EC00F00D0EE88EA0EC00F0030EA4EC18
:1007200000F037EC00F0020EE88EA0EC00F0040EB2
:10073000A4EC00F037EC00F00D0EE88EA0EC00F019
:10074000040EA4EC00F037EC00F0020EE88EA0ECF2
:1007500000F0050EA4EC00F037EC00F00D0EE88E72
:10076000A0EC00F0050EA4EC00F037EC00F0022E37
:100770004BEF03F01200010EA0EC00F037EC00F09C
:10078000210EA4EC00F04E0EA4EC00F0450EA4ECFB
:1007900000F0570EA4EC00F0050EE88EA0EC00F07F
:1007A000480EA4EC00F0490EA4EC00F0470EA4ECB7
:1007B00000F0480EA4EC00F00A0EE88EA0EC00F069
:1007C000530EA4EC00F0430EA4EC00F04F0EA4EC8A
:1007D00000F0520EA4EC00F0450EA4EC00F0210E47
:1007E000A4EC00F0400EE88EA0EC00F02D0EA4EC7E
:1007F00000F02D0EA4EC00F02D0EA4EC00F02D0E58
:10080000A4EC00F02D0EA4EC00F02D0EA4EC00F0F2
:100810003E0EA4EC00F0300EA4EC00F00550A4EC69
:1008200000F03C0EA4EC00F02D0EA4EC00F02D0E18
:10083000A4EC00F02D0EA4EC00F02D0EA4EC00F0C2
:100840002D0EA4EC00F02D0EA4EC00F01200010E11
:10085000A0EC00F037EC00F0040EE88EA0EC00F005
:10086000540EA4EC00F0490EA4EC00F04D0EA4ECE4
:1008700000F0450EA4EC00F0530EA4EC00F00A0EBC
:10088000E88EA0EC00F0550EA4EC00F0500EA4ECA5
:1008900000F0470EE88EA0EC00F0000EA4EC00F093
:1008A000010EA4EC00F01200010EA0EC00F037ECF9
:1008B00000F0530EA4EC00F0430EA4EC00F04F0E39
:1008C000A4EC00F0520EA4EC00F0450EA4EC00F0F5
:1008D0003A0EA4EC00F0440EE88EA0EC00F02D0ED1
:1008E000A4EC00F02D0EA4EC00F02D0EA4EC00F012
:1008F0003E0EA4EC00F00550A4EC00F03C0EA4EC7D
:1009000000F02D0EA4EC00F02D0EA4EC00F02D0E46
:10091000A4EC00F01200010EA0EC00F037EC00F0A7
:10092000530EA4EC00F0430EA4EC00F04F0EA4EC28
:1009300000F0520EA4EC00F0450EA4EC00F0530EB3
:10094000A4EC00F03A0EA4EC00F0300EA4EC00F0A1
:10095000340EA4EC00F02D0EA4EC00F0300EA4EC4C
:1009600000F0360EA4EC00F02D0EA4EC00F0310ED9
:10097000A4EC00F0300EA4EC00F0400EE88EA0ECE9
:1009800000F0420EA4EC00F0450EA4EC00F0530E73
:10099000A4EC00F0540EA4EC00F0450EE88EA0ECA0
:1009A00000F0530EA4EC00F0430EA4EC00F04F0E48
:1009B000A4EC00F0520EA4EC00F0450EA4EC00F004
:1009C0002D0EA4EC00F03E0EA4EC00F0310EA4ECD1
:1009D00000F0300EA4EC00F01200010EA0EC00F0CC
:1009E00037EC00F0530EA4EC00F02D0EA4EC00F058
:1009F0002D0EA4EC00F03E0EA4EC00F0050EE88EE7
:100A0000A0EC00F04E0EA4EC00F0450EA4EC00F0BB
:100A1000570EA4EC00F0090EE88EA0EC00F0470E93
:100A2000A4EC00F0410EA4EC00F04D0EA4EC00F09C
:100A3000450EA4EC00F0400EE88EA0EC00F0480E4D
:100A4000A4EC00F02D0EA4EC00F02D0EA4EC00F0B0
:100A50003E0EA4EC00F0450EE88EA0EC00F0480E2F
:100A6000A4EC00F0490EA4EC00F0470EA4EC00F05A
:100A7000480EA4EC00F04A0EE88EA0EC00F0530EF5
:100A8000A4EC00F0430EA4EC00F04F0EA4EC00F038
:100A9000520EA4EC00F0450EA4EC00F0530EA4ECB2
:100AA00000F01200FB0E8A6E81A074EC05F081A2AA
:100AB0007DEC05F0F70E8A6E81A089EC05F081A22D
:100AC00095EC05F0EF0E8A6E81A2A1EC05F0120004
:100AD000FB0E8A6E81A0ADEF05F0EF0E8A6E81A04D
:100AE000B6EF05F068EF05F081A074EF05F0300E69
:100AF000056E42EC00F00A841200898481A27DEF29
:100B000005F08994066A068442EC00F0BFEC05F01B
:100B10001200898681A089EF05F08996066A06860B
:100B200042EC00F0BFEC05F01200898081A295EF45
:100B300005F08990066A068042EC00F0BFEC05F0F3
:100B40001200898281A2A1EF05F08992066A0682CD
:100B500042EC00F0BFEC05F0120081A0ADEF05F013
:100B600042EC00F0C7EC05F069EF06F081A0B6EFAB
:100B700005F042EC00F0D4EC05F05BEF06F0075016
:100B8000065CE850D8A40A80D8B40A821200898A88
:100B900037EC00F037EC00F037EC00F037EC00F009
:100BA00037EC00F0899A1200898837EC00F037ECB6
:100BB00000F037EC00F037EC00F037EC00F08998EB
:100BC0001200898437EC00F037EC00F037EC00F0CD
:100BD00037EC00F037EC00F089941200898637EC8E
:100BE00000F037EC00F037EC00F037EC00F037ECB9
:100BF00000F089961200898037EC00F037EC00F0A5
:100C000037EC00F037EC00F037EC00F08990120080
:100C1000898237EC00F037EC00F037EC00F037EC6D
:100C200000F037EC00F089921200096ABC50E8B07D
:100C30000980E8B20982076A0950D8A422EF06F0B9
:100C4000078012000108D8A228EF06F007821200E0
:100C50000108D8A22EEF06F00784120007861200C2
:100C60000BB0FBEC05F00BB208EC06F00BB4E1ECBA
:100C700005F00BB6EEEC05F01200010E116E020E3F
:100C8000126E010E136E080E146E080E156E020E13
:100C9000166E010E176E040E186E040E196E080EF5
:100CA0001A6E1200C1EC00F03DEC06F00A6AEDECA1
:100CB00004F068EF05F08BEC04F0FB0E8A6E81B057
:100CC0005FEF06F081A062EF06F042EC00F056EF15
:100CD00006F0300E056E54EC04F011C00BF030EC51
:100CE00006F011C007F064EC00F00AB056EF06F011
:100CF0000A6A310E056E93EC00F011C00BF030EC77
:100D000006F037EC00F012C00BF030EC06F011C02A
:100D100007F064EC00F00AB056EF06F00A6A12C061
:100D200007F064EC00F00AB056EF06F00A6A320EE3
:100D3000056E93EC00F011C00BF030EC06F037ECD0
:100D400000F012C00BF030EC06F037EC00F013C0EE
:100D50000BF030EC06F011C007F064EC00F00AB0C4
:100D600056EF06F00A6A12C007F064EC00F00AB011
:100D700056EF06F00A6A13C007F064EC00F00AB000
:100D800056EF06F00A6A330E056E93EC00F011C0C0
:100D90000BF030EC06F037EC00F012C00BF030EC4A
:100DA00006F037EC00F013C00BF030EC06F037EC37
:100DB00000F014C00BF030EC06F011C007F064EC4A
:100DC00000F00AB056EF06F00A6A12C007F064ECB1
:100DD00000F00AB056EF06F00A6A13C007F064ECA0
:100DE00000F00AB056EF06F00A6A14C007F064EC8F
:100DF00000F00AB056EF06F00A6A340E056E93EC66
:100E000000F011C00BF030EC06F037EC00F012C02F
:100E10000BF030EC06F037EC00F013C00BF030ECC8
:100E200006F037EC00F014C00BF030EC06F037ECB5
:100E300000F015C00BF030EC06F011C007F064ECC8
:100E400000F00AB056EF06F00A6A12C007F064EC30
:100E500000F00AB056EF06F00A6A13C007F064EC1F
:100E600000F00AB056EF06F00A6A14C007F064EC0E
:100E700000F00AB056EF06F00A6A15C007F064ECFD
:100E800000F00AB056EF06F00A6A350E056E93ECD4
:100E900000F011C00BF030EC06F037EC00F012C09F
:100EA0000BF030EC06F037EC00F013C00BF030EC38
:100EB00006F037EC00F014C00BF030EC06F037EC25
:100EC00000F015C00BF030EC06F037EC00F016C067
:100ED0000BF030EC06F011C007F064EC00F00AB043
:100EE00056EF06F00A6A12C007F064EC00F00AB090
:100EF00056EF06F00A6A13C007F064EC00F00AB07F
:100F000056EF06F00A6A14C007F064EC00F00AB06D
:100F100056EF06F00A6A15C007F064EC00F00AB05C
:100F200056EF06F00A6A16C007F064EC00F00AB04B
:100F300056EF06F00A6A360E056E93EC00F011C00B
:100F40000BF030EC06F037EC00F012C00BF030EC98
:100F500006F037EC00F013C00BF030EC06F037EC85
:100F600000F014C00BF030EC06F037EC00F015C0C8
:100F70000BF030EC06F037EC00F016C00BF030EC64
:100F800006F037EC00F017C00BF030EC06F011C0A3
:100F900007F064EC00F00AB056EF06F00A6A12C0DF
:100FA00007F064EC00F00AB056EF06F00A6A13C0CE
:100FB00007F064EC00F00AB056EF06F00A6A14C0BD
:100FC00007F064EC00F00AB056EF06F00A6A15C0AC
:100FD00007F064EC00F00AB056EF06F00A6A16C09B
:100FE00007F064EC00F00AB056EF06F00A6A17C08A
:100FF00007F064EC00F00AB056EF06F00A6A370E0C
:10100000056E93EC00F011C00BF030EC06F037ECFD
:1010100000F012C00BF030EC06F037EC00F013C01B
:101020000BF030EC06F037EC00F014C00BF030ECB5
:1010300006F037EC00F015C00BF030EC06F037ECA2
:1010400000F016C00BF030EC06F037EC00F017C0E3
:101050000BF030EC06F037EC00F018C00BF030EC81
:1010600006F011C007F064EC00F00AB056EF06F08D
:101070000A6A12C007F064EC00F00AB056EF06F0FE
:101080000A6A13C007F064EC00F00AB056EF06F0ED
:101090000A6A14C007F064EC00F00AB056EF06F0DC
:1010A0000A6A15C007F064EC00F00AB056EF06F0CB
:1010B0000A6A16C007F064EC00F00AB056EF06F0BA
:1010C0000A6A17C007F064EC00F00AB056EF06F0A9
:1010D0000A6A18C007F064EC00F00AB056EF06F098
:1010E0000A6A380E056E93EC00F011C00BF030EC7C
:1010F00006F037EC00F012C00BF030EC06F037ECE5
:1011000000F013C00BF030EC06F037EC00F014C028
:101110000BF030EC06F037EC00F015C00BF030ECC3
:1011200006F037EC00F016C00BF030EC06F037ECB0
:1011300000F017C00BF030EC06F037EC00F018C0F0
:101140000BF030EC06F037EC00F019C00BF030EC8F
:1011500006F011C007F064EC00F00AB056EF06F09C
:101160000A6A12C007F064EC00F00AB056EF06F00D
:101170000A6A13C007F064EC00F00AB056EF06F0FC
:101180000A6A14C007F064EC00F00AB056EF06F0EB
:101190000A6A15C007F064EC00F00AB056EF06F0DA
:1011A0000A6A16C007F064EC00F00AB056EF06F0C9
:1011B0000A6A17C007F064EC00F00AB056EF06F0B8
:1011C0000A6A18C007F064EC00F00AB056EF06F0A7
:1011D0000A6A19C007F064EC00F00AB056EF06F096
:1011E0000A6A390E056E93EC00F011C00BF030EC7A
:1011F00006F037EC00F012C00BF030EC06F037ECE4
:1012000000F013C00BF030EC06F037EC00F014C027
:101210000BF030EC06F037EC00F015C00BF030ECC2
:1012200006F037EC00F016C00BF030EC06F037ECAF
:1012300000F017C00BF030EC06F037EC00F018C0EF
:101240000BF030EC06F037EC00F019C00BF030EC8E
:1012500006F037EC00F01AC00BF030EC06F011C0CD
:1012600007F064EC00F00AB056EF06F00A6A12C00C
:1012700007F064EC00F00AB056EF06F00A6A13C0FB
:1012800007F064EC00F00AB056EF06F00A6A14C0EA
:1012900007F064EC00F00AB056EF06F00A6A15C0D9
:1012A00007F064EC00F00AB056EF06F00A6A16C0C8
:1012B00007F064EC00F00AB056EF06F00A6A17C0B7
:1012C00007F064EC00F00AB056EF06F00A6A18C0A6
:1012D00007F064EC00F00AB056EF06F00A6A19C095
:1012E00007F064EC00F00AB056EF06F00A6A1AC084
:1012F00007F064EC00F00AB056EF06F00A6A410EFF
:06130000056E93EC00F005
:00000001FF
