:020000040000FA
:0400000018EF00F005
:020004000000FA
:020008001000E6
:020018001000D6
:100030000F015B6B5C6B5D6B5E6BF19E030E936EF1
:10004000856E926A946A956A896A8B6A8C6ABB68C3
:10005000040EBA6E300E056E0A900A920A94AEEF44
:1000600006F0210E006E002E33EF00F01200000E9D
:10007000006E800E016E002E3BEF00F0012E3BEF74
:1000800000F01200000E036E1A0E046E032E46EFEF
:1000900000F0042E46EF00F01200000E206E216EDC
:1000A000050E226E110E236E202E54EF00F0212E2D
:1000B00054EF00F0222E54EF00F0202E5DEF00F000
:1000C000232E5DEF00F01200070ED56EB30ED76E33
:1000D000B40EF294D66ED58EF2B47BEF00F055ECF0
:1000E00005F00AB483EF00F00AB212000AB081EF03
:1000F00000F06CEF00F0CDEC00F011EC04F04DECF2
:1001000000F0D7EC05F09DEC01F065EC02F042EC5C
:1001100006F08DEC06F00A801200CAEC05F005EC42
:1001200001F01FEC03F03EEC04F04DEC00F0120087
:100130008B908B92A4EF00F08B808B92A4EF00F059
:100140008B808B82A4EF00F08B848C6E31EC00F0FE
:100150008B9431EC00F01200958E8B908B828B8407
:10016000000037EC00F083BEB1EF00F08B94959E59
:1001700012008B9437EC00F0380E98EC00F00C0E67
:1001800098EC00F037EC00F01C0E98EC00F0010E3B
:1001900098EC00F037EC00F01200000EE88C98ECC0
:1001A00000F0D4EC00F01200000E9CEC00F0060E03
:1001B0009CEC00F0060E9CEC00F0000E9CEC00F0B5
:1001C000010E9CEC00F0060E9CEC00F0080E9CEC7E
:1001D00000F0000E9CEC00F0000E9CEC00F00C0E09
:1001E0009CEC00F00C0E9CEC00F0000E9CEC00F07F
:1001F000100E9CEC00F00C0E9CEC00F0020E9CEC3F
:1002000000F0000E9CEC00F01200000EE88C98EC60
:1002100000F00CEC01F01200000E9CEC00F0000E5F
:100220009CEC00F0000E9CEC00F0000E9CEC00F04A
:10023000000E9CEC00F0000E9CEC00F0040E9CEC18
:1002400000F00E0E9CEC00F0000E9CEC00F0000E96
:100250009CEC00F0000E9CEC00F0000E9CEC00F01A
:10026000040E9CEC00F00E0E9CEC00F0150E9CECC5
:1002700000F0040E9CEC00F0000E9CEC00F0000E70
:100280009CEC00F0040E9CEC00F00E0E9CEC00F0D8
:10029000150E9CEC00F0040E9CEC00F0040E9CEC9F
:1002A00000F0040E9CEC00F0040E9CEC00F00E0E2E
:1002B0009CEC00F0150E9CEC00F0040E9CEC00F0A1
:1002C000040E9CEC00F0040E9CEC00F0040E9CEC80
:1002D00000F0000E9CEC00F0150E9CEC00F0040EFB
:1002E0009CEC00F0040E9CEC00F0040E9CEC00F082
:1002F000040E9CEC00F0000E9CEC00F0000E9CEC58
:1003000000F0000E9CEC00F0040E9CEC00F0040EDB
:100310009CEC00F0040E9CEC00F0000E9CEC00F055
:10032000000E9CEC00F0000E9CEC00F0000E9CEC2B
:1003300000F0000E9CEC00F01200000EE88C98EC2F
:1003400000F0A4EC01F01200030E9CEC00F00F0E84
:100350009CEC00F00F0E9CEC00F01F0E9CEC00F0EB
:100360001F0E9CEC00F01D0E9CEC00F0190E9CEC96
:1003700000F01B0E9CEC00F0100E9CEC00F01C0E2C
:100380009CEC00F01C0E9CEC00F01E0E9CEC00F0AF
:100390001E0E9CEC00F00E0E9CEC00F0060E9CEC89
:1003A00000F0160E9CEC00F00F0E9CEC00F00E0E10
:1003B0009CEC00F0070E9CEC00F0040E9CEC00F0AE
:1003C000050E9CEC00F0050E9CEC00F0070E9CEC7A
:1003D00000F0030E9CEC00F01C0E9CEC00F01C0ED8
:1003E0009CEC00F0180E9CEC00F0080E9CEC00F069
:1003F000080E9CEC00F0080E9CEC00F0180E9CEC33
:1004000000F0100E9CEC00F01C0E9CEC00F0100EA6
:100410009CEC00F0100E9CEC00F0000E9CEC00F048
:10042000000E9CEC00F0020E9CEC00F0060E9CEC22
:1004300000F0040E9CEC00F00F0E9CEC00F0030E9C
:100440009CEC00F0030E9CEC00F0010E9CEC00F024
:10045000010E9CEC00F0110E9CEC00F0190E9CECCF
:1004600000F0090E9CEC00F0100E9CEC00F0110E58
:100470009CEC00F0180E9CEC00F01B0E9CEC00F0C5
:100480001A0E9CEC00F01A0E9CEC00F0180E9CEC7E
:1004900000F01C0E9CEC00F0030E9CEC00F0030E30
:1004A0009CEC00F0070E9CEC00F0170E9CEC00F0AA
:1004B000170E9CEC00F0170E9CEC00F0070E9CEC65
:1004C00000F00F0E9CEC00F01200010E98EC00F012
:1004D00037EC00F0010EE88E98EC00F0000E9CEC7A
:1004E00000F0010E9CEC00F0040E9CEC00F0050EF8
:1004F0009CEC00F0060EE88E98EC00F0470E9CECA9
:1005000000F0410E9CEC00F04D0E9CEC00F0450E0E
:100510009CEC00F00B0EE88E98EC00F0000E9CECCA
:1005200000F0010E9CEC00F0040E9CEC00F0050EB7
:100530009CEC00F0100EE88E98EC00F0470E9CEC5E
:1005400000F0410E9CEC00F04D0E9CEC00F0450ECE
:100550009CEC00F0150EE88E98EC00F0000E9CEC80
:1005600000F0010E9CEC00F0040E9CEC00F0050E77
:100570009CEC00F0410EE88E98EC00F0020E9CEC32
:1005800000F0030E9CEC00F0060E9CEC00F0070E51
:100590009CEC00F0460EE88E98EC00F04F0E9CECC0
:1005A00000F0560E9CEC00F0450E9CEC00F0520E54
:1005B0009CEC00F04B0EE88E98EC00F0020E9CECE8
:1005C00000F0030E9CEC00F0060E9CEC00F0070E11
:1005D0009CEC00F0500EE88E98EC00F04F0E9CEC76
:1005E00000F0560E9CEC00F0450E9CEC00F0520E14
:1005F0009CEC00F0550EE88E98EC00F0020E9CEC9E
:1006000000F0030E9CEC00F0060E9CEC00F0070ED0
:100610009CEC00F0F00E086E37EC00F0180E98EC31
:1006200000F0083E0CEF03F0F00E086E37EC00F01F
:100630001C0E98EC00F0083E16EF03F01200010EBD
:1006400098EC00F037EC00F0440EE88E98EC00F0E7
:100650004C0E9CEC00F0450E9CEC00F0560E9CEC11
:1006600000F0450E9CEC00F04C0E9CEC00F04A0EA5
:10067000E88E98EC00F0550E9CEC00F0500E9CECCF
:1006800000F0020E026E020EE88E98EC00F0000EF2
:100690009CEC00F00D0EE88E98EC00F0000E9CEC47
:1006A00000F037EC00F0020EE88E98EC00F0010E3E
:1006B0009CEC00F00D0EE88E98EC00F0010E9CEC26
:1006C00000F037EC00F0020EE88E98EC00F0020E1D
:1006D0009CEC00F00D0EE88E98EC00F0020E9CEC05
:1006E00000F037EC00F0020EE88E98EC00F0030EFC
:1006F0009CEC00F00D0EE88E98EC00F0030E9CECE4
:1007000000F037EC00F0020EE88E98EC00F0040EDA
:100710009CEC00F00D0EE88E98EC00F0040E9CECC2
:1007200000F037EC00F0020EE88E98EC00F0050EB9
:100730009CEC00F00D0EE88E98EC00F0050E9CECA1
:1007400000F037EC00F0022E43EF03F01200010E30
:1007500098EC00F037EC00F0200E9CEC00F04E0E10
:100760009CEC00F0450E9CEC00F0570E9CEC00F069
:10077000050EE88E98EC00F0480E9CEC00F0490E57
:100780009CEC00F0470E9CEC00F0480E9CEC00F056
:100790000A0EE88E98EC00F0530E9CEC00F0430E2D
:1007A0009CEC00F04F0E9CEC00F0520E9CEC00F024
:1007B000450E9CEC00F0210E9CEC00F0400EE88E03
:1007C00098EC00F02D0E9CEC00F02D0E9CEC00F04F
:1007D0002D0E9CEC00F02D0E9CEC00F02D0E9CECF0
:1007E00000F02D0E9CEC00F03E0E9CEC00F005C0DD
:1007F0000DF042EC05F03C0E9CEC00F02D0E9CEC54
:1008000000F02D0E9CEC00F02D0E9CEC00F02D0E57
:100810009CEC00F02D0E9CEC00F02D0E9CEC00F0FA
:100820001200010E98EC00F037EC00F0040EE88E98
:1008300098EC00F0540E9CEC00F0490E9CEC00F09B
:100840004D0E9CEC00F0450E9CEC00F0530E9CEC21
:1008500000F00A0EE88E98EC00F0550E9CEC00F0CB
:10086000500E9CEC00F0470EE88E98EC00F0000E65
:100870009CEC00F0010E9CEC00F01200010E98ECD4
:1008800000F037EC00F0530E9CEC00F0430E9CECB3
:1008900000F04F0E9CEC00F0520E9CEC00F0450E68
:1008A0009CEC00F03A0E9CEC00F0430EE88E98ECC5
:1008B00000F02D0E9CEC00F02D0E9CEC00F02D0EA7
:1008C0009CEC00F03E0E9CEC00F005C00DF042ECFC
:1008D00005F03C0E9CEC00F02D0E9CEC00F02D0E73
:1008E0009CEC00F02D0E9CEC00F01200010E98EC38
:1008F00000F037EC00F0530E9CEC00F0430E9CEC43
:1009000000F04F0E9CEC00F0520E9CEC00F0450EF7
:100910009CEC00F0530E9CEC00F03A0E9CEC00F0C6
:10092000030EA96EA680A8500D6E42EC05F02D0EA8
:100930009CEC00F0020EA96EA680A8500D6E42EC51
:1009400005F02D0E9CEC00F0010EA96EA680A850BB
:100950000D6E42EC05F0400EE88E98EC00F0420E71
:100960009CEC00F0450E9CEC00F0530E9CEC00F06B
:10097000540E9CEC00F0450EE88E98EC00F0530EFF
:100980009CEC00F0430E9CEC00F04F0E9CEC00F051
:10099000520E9CEC00F0450E9CEC00F02D0E9CECF1
:1009A00000F03E0E9CEC00F0000EA96EA680A85050
:1009B000A6900D6E42EC05F01200010E98EC00F0CE
:1009C00037EC00F0530E9CEC00F02D0E9CEC00F088
:1009D0002D0E9CEC00F03E0E9CEC00F0050EE88E17
:1009E00098EC00F04E0E9CEC00F0450E9CEC00F0F4
:1009F000570E9CEC00F0090EE88E98EC00F0470EC4
:100A00009CEC00F0410E9CEC00F04D0E9CEC00F0D4
:100A1000450E9CEC00F0400EE88E98EC00F0500E75
:100A20009CEC00F02D0E9CEC00F02D0E9CEC00F0E8
:100A30003E0E9CEC00F0450EE88E98EC00F0500E57
:100A40009CEC00F0520E9CEC00F0450E9CEC00F08B
:100A5000560E9CEC00F04A0EE88E98EC00F0530E17
:100A60009CEC00F0430E9CEC00F04F0E9CEC00F070
:100A7000520E9CEC00F0450E9CEC00F0530E9CECEA
:100A800000F012000D504108D8A44EEF05F0310ED1
:100A90009CEC00F0300E9CEC00F01200300E9CEC50
:100AA00000F00D509CEC00F01200FB0E8A6E81A04D
:100AB00077EC05F081A280EC05F0F70E8A6E81A03C
:100AC0008CEC05F081A298EC05F0EF0E8A6E81A205
:100AD000A4EC05F01200FB0E8A6E81A0B0EF05F0C9
:100AE000EF0E8A6E81A0B9EF05F06BEF05F081A0E3
:100AF00077EF05F0300E056E42EC00F00A8412002C
:100B0000898481A280EF05F08994066A068442EC0C
:100B100000F0C2EC05F01200898681A08CEF05F090
:100B20008996066A068642EC00F0C2EC05F01200D7
:100B3000898081A298EF05F08990066A068042ECD0
:100B400000F0C2EC05F01200898281A2A4EF05F04A
:100B50008992066A068242EC00F0C2EC05F01200AF
:100B600081A0B0EF05F042EC00F0CAEC05F0C3EF55
:100B700006F081A0B9EF05F042EC00F0D7EC05F0EB
:100B8000B5EF06F00750065CE850D8A40A80D8B448
:100B90000A821200898A37EC00F037EC00F037EC5B
:100BA00000F037EC00F037EC00F0899A12008988E9
:100BB00037EC00F037EC00F037EC00F037EC00F0E9
:100BC00037EC00F089981200898437EC00F037EC9C
:100BD00000F037EC00F037EC00F037EC00F08994CF
:100BE0001200898637EC00F037EC00F037EC00F0AB
:100BF00037EC00F037EC00F089961200898037EC72
:100C000000F037EC00F037EC00F037EC00F037EC98
:100C100000F089901200898237EC00F037EC00F088
:100C200037EC00F037EC00F037EC00F0899212005E
:100C3000096ABC50E8B00980E8B209820C6A095020
:100C4000D8A425EF06F00C80120009500108D8A4A2
:100C50002CEF06F00C82120009500208D8A433EFE2
:100C600006F00C8412000C8612000BB0FEEC05F0AE
:100C70000BB20BEC06F00BB4E4EC05F00BB6F1ECA8
:100C800005F01200030EA96EA680A8CF24F0020E74
:100C9000A96EA680A8CF25F0A690030EA96E0550D8
:100CA000A86E72EC06F00550A680A85CD8A44DEFA3
:100CB00006F0020EA96E2450A86E72EC06F02450C5
:100CC000A680A85CD8A459EF06F0010EA96E2550A5
:100CD000A86E72EC06F02550A680A85CD8A465EF3B
:100CE00006F01200A684550EA76EAA0EA76EA68265
:100CF000A6B278EF06F0A694A86A1200000EA96EBC
:100D000005C0A8FF72EC06F00550A69EA680A85C60
:100D1000D8A47EEF06F0A86A1200000EA96EA69E67
:100D2000A680A850055CD8B812007EEC06F0A7ECAF
:100D300003F04DEC00F01200000EA96EA86E72ECEC
:100D400006F0010EA96E72EC06F0020EA96E72ECAE
:100D500006F0030EA96E72EC06F01200B9EC00F07A
:100D60000A6ADDEC04F06BEF05F076EC04F0FB0EA4
:100D70008A6E81B0B9EF06F081A0BCEF06F042ECBC
:100D800000F0B0EF06F0300E056E3EEC04F018EC0B
:100D900006F00CC011F011C00BF035EC06F011C0DC
:100DA00007F064EC00F00AB0B0EF06F00A6A310E0A
:100DB000056E8DEC00F018EC06F00CC012F011C0BE
:100DC0000BF035EC06F037EC00F012C00BF035EC10
:100DD00006F011C007F064EC00F00AB0B0EF06F0C6
:100DE0000A6A12C007F064EC00F00AB0B0EF06F037
:100DF0000A6A320E056E8DEC00F018EC06F00CC09D
:100E000013F011C00BF035EC06F037EC00F012C017
:100E10000BF035EC06F037EC00F013C00BF035ECBE
:100E200006F011C007F064EC00F00AB0B0EF06F075
:100E30000A6A12C007F064EC00F00AB0B0EF06F0E6
:100E40000A6A13C007F064EC00F00AB0B0EF06F0D5
:100E50000A6A330E056E8DEC00F018EC06F00CC03B
:100E600014F011C00BF035EC06F037EC00F012C0B6
:100E70000BF035EC06F037EC00F013C00BF035EC5E
:100E800006F037EC00F014C00BF035EC06F011C0A2
:100E900007F064EC00F00AB0B0EF06F00A6A12C086
:100EA00007F064EC00F00AB0B0EF06F00A6A13C075
:100EB00007F064EC00F00AB0B0EF06F00A6A14C064
:100EC00007F064EC00F00AB0B0EF06F00A6A340EE6
:100ED000056E8DEC00F018EC06F00CC015F011C09A
:100EE0000BF035EC06F037EC00F012C00BF035ECEF
:100EF00006F037EC00F013C00BF035EC06F037ECE1
:100F000000F014C00BF035EC06F037EC00F015C023
:100F10000BF035EC06F011C007F064EC00F00AB0FD
:100F2000B0EF06F00A6A12C007F064EC00F00AB0F5
:100F3000B0EF06F00A6A13C007F064EC00F00AB0E4
:100F4000B0EF06F00A6A14C007F064EC00F00AB0D3
:100F5000B0EF06F00A6A15C007F064EC00F00AB0C2
:100F6000B0EF06F00A6A350E056E8DEC00F018EC55
:100F700006F00CC016F011C00BF035EC06F037ECA3
:100F800000F012C00BF035EC06F037EC00F013C0A7
:100F90000BF035EC06F037EC00F014C00BF035EC3C
:100FA00006F037EC00F015C00BF035EC06F037EC2E
:100FB00000F016C00BF035EC06F011C007F064EC41
:100FC00000F00AB0B0EF06F00A6A12C007F064EC55
:100FD00000F00AB0B0EF06F00A6A13C007F064EC44
:100FE00000F00AB0B0EF06F00A6A14C007F064EC33
:100FF00000F00AB0B0EF06F00A6A15C007F064EC22
:1010000000F00AB0B0EF06F00A6A16C007F064EC10
:1010100000F00AB0B0EF06F00A6A360E056E8DECED
:1010200000F018EC06F00CC017F011C00BF035EC16
:1010300006F037EC00F012C00BF035EC06F037ECA0
:1010400000F013C00BF035EC06F037EC00F014C0E4
:101050000BF035EC06F037EC00F015C00BF035EC7A
:1010600006F037EC00F016C00BF035EC06F037EC6C
:1010700000F017C00BF035EC06F011C007F064EC7F
:1010800000F00AB0B0EF06F00A6A12C007F064EC94
:1010900000F00AB0B0EF06F00A6A13C007F064EC83
:1010A00000F00AB0B0EF06F00A6A14C007F064EC72
:1010B00000F00AB0B0EF06F00A6A15C007F064EC61
:1010C00000F00AB0B0EF06F00A6A16C007F064EC50
:1010D00000F00AB0B0EF06F00A6A17C007F064EC3F
:1010E00000F00AB0B0EF06F00A6A370E056E8DEC1C
:1010F00000F018EC06F00CC018F011C00BF035EC45
:1011000006F037EC00F012C00BF035EC06F037ECCF
:1011100000F013C00BF035EC06F037EC00F014C013
:101120000BF035EC06F037EC00F015C00BF035ECA9
:1011300006F037EC00F016C00BF035EC06F037EC9B
:1011400000F017C00BF035EC06F037EC00F018C0DB
:101150000BF035EC06F011C007F064EC00F00AB0BB
:10116000B0EF06F00A6A12C007F064EC00F00AB0B3
:10117000B0EF06F00A6A13C007F064EC00F00AB0A2
:10118000B0EF06F00A6A14C007F064EC00F00AB091
:10119000B0EF06F00A6A15C007F064EC00F00AB080
:1011A000B0EF06F00A6A16C007F064EC00F00AB06F
:1011B000B0EF06F00A6A17C007F064EC00F00AB05E
:1011C000B0EF06F00A6A18C007F064EC00F00AB04D
:1011D000B0EF06F00A6A380E056E8DEC00F018ECE0
:1011E00006F00CC019F011C00BF035EC06F037EC2E
:1011F00000F012C00BF035EC06F037EC00F013C035
:101200000BF035EC06F037EC00F014C00BF035ECC9
:1012100006F037EC00F015C00BF035EC06F037ECBB
:1012200000F016C00BF035EC06F037EC00F017C0FC
:101230000BF035EC06F037EC00F018C00BF035EC95
:1012400006F037EC00F019C00BF035EC06F011C0D9
:1012500007F064EC00F00AB0B0EF06F00A6A12C0C2
:1012600007F064EC00F00AB0B0EF06F00A6A13C0B1
:1012700007F064EC00F00AB0B0EF06F00A6A14C0A0
:1012800007F064EC00F00AB0B0EF06F00A6A15C08F
:1012900007F064EC00F00AB0B0EF06F00A6A16C07E
:1012A00007F064EC00F00AB0B0EF06F00A6A17C06D
:1012B00007F064EC00F00AB0B0EF06F00A6A18C05C
:1012C00007F064EC00F00AB0B0EF06F00A6A19C04B
:1012D00007F064EC00F00AB0B0EF06F00A6A390ECD
:1012E000056E8DEC00F018EC06F00CC01AF011C081
:1012F0000BF035EC06F037EC00F012C00BF035ECDB
:1013000006F037EC00F013C00BF035EC06F037ECCC
:1013100000F014C00BF035EC06F037EC00F015C00F
:101320000BF035EC06F037EC00F016C00BF035ECA6
:1013300006F037EC00F017C00BF035EC06F037EC98
:1013400000F018C00BF035EC06F037EC00F019C0D7
:101350000BF035EC06F037EC00F01AC00BF035EC72
:1013600006F011C007F064EC00F00AB0B0EF06F030
:101370000A6A12C007F064EC00F00AB0B0EF06F0A1
:101380000A6A13C007F064EC00F00AB0B0EF06F090
:101390000A6A14C007F064EC00F00AB0B0EF06F07F
:1013A0000A6A15C007F064EC00F00AB0B0EF06F06E
:1013B0000A6A16C007F064EC00F00AB0B0EF06F05D
:1013C0000A6A17C007F064EC00F00AB0B0EF06F04C
:1013D0000A6A18C007F064EC00F00AB0B0EF06F03B
:1013E0000A6A19C007F064EC00F00AB0B0EF06F02A
:1013F0000A6A1AC007F064EC00F00AB0B0EF06F019
:0E1400000A6A410E056E8DEC00F089EF00F0D7
:00000001FF
