:020000040000FA
:0400000018EF00F005
:020004000000FA
:020008001000E6
:020018001000D6
:100030000F015B6B5C6B5D6B5E6BF19E030E936EF1
:10004000856E926A946A956A896A8B6A8C6ABB6AC1
:10005000040EBA6E300E056E0A900A920A9461EF91
:1000600006F0210E006E002E33EF00F01200000E9D
:10007000006E800E016E002E3BEF00F0012E3BEF74
:1000800000F01200000E036E1A0E046E032E46EFEF
:1000900000F0042E46EF00F01200000E206E216EDC
:1000A000050E226E110E236E202E54EF00F0212E2D
:1000B00054EF00F0222E54EF00F0202E5DEF00F000
:1000C000232E5DEF00F01200070ED56EB30ED76E33
:1000D000B40EF294D66ED58EF2B47BEF00F061ECE4
:1000E00005F00AB485EF00F00AB212000AB081EF01
:1000F00000F06CEF00F03AEC01F095EC04F04DEC00
:1001000000F0E3EC05F04DEC00F00AEC02F0D2EC6C
:1001100002F04DEC00F029EC04F04DEC00F00A8008
:100120004DEC00F01200D6EC05F072EC01F090EC12
:1001300003F04DEC00F0C2EC04F04DEC00F01200C6
:100140008B908B92ACEF00F08B808B92ACEF00F039
:100150008B808B82ACEF00F08B848C6E31EC00F0E6
:100160008B9431EC00F01200958E8B908B828B84F7
:10017000000037EC00F083BEB9EF00F08B94959E41
:1001800012008B9437EC00F0380EA0EC00F00F0E4C
:10019000A0EC00F037EC00F01C0EA0EC00F0010E1B
:1001A000A0EC00F037EC00F01200010EA0EC00F023
:1001B00037EC00F0570EA4EC00F02D0EA4EC00F08C
:1001C0002D0EA4EC00F03E0EA4EC00F0050EE88E1F
:1001D000A0EC00F04E0EA4EC00F0450EA4EC00F0F4
:1001E000570EA4EC00F0090EE88EA0EC00F0470ECC
:1001F000A4EC00F0410EA4EC00F04D0EA4EC00F0D5
:10020000450EA4EC00F0400EE88EA0EC00F0420E8B
:10021000A4EC00F02D0EA4EC00F02D0EA4EC00F0E8
:100220003E0EA4EC00F0450EE88EA0EC00F0480E67
:10023000A4EC00F0490EA4EC00F0470EA4EC00F092
:10024000480EA4EC00F04A0EE88EA0EC00F0530E2D
:10025000A4EC00F0430EA4EC00F04F0EA4EC00F070
:10026000520EA4EC00F0450EA4EC00F0530EA4ECEA
:1002700000F01200000EE88CA0EC00F041EC01F060
:100280001200000EA4EC00F0060EA4EC00F0060E26
:10029000A4EC00F0000EA4EC00F0010EA4EC00F0C1
:1002A000060EA4EC00F0080EA4EC00F0000EA4EC86
:1002B00000F0000EA4EC00F00C0EA4EC00F00C0E0C
:1002C000A4EC00F0000EA4EC00F0100EA4EC00F082
:1002D0000C0EA4EC00F0020EA4EC00F0000EA4EC56
:1002E00000F01200000EE88CA0EC00F079EC01F0B8
:1002F0001200000EA4EC00F0000EA4EC00F0000EC2
:10030000A4EC00F0000EA4EC00F0000EA4EC00F051
:10031000000EA4EC00F0040EA4EC00F00E0EA4EC11
:1003200000F0000EA4EC00F0000EA4EC00F0000EB3
:10033000A4EC00F0000EA4EC00F0040EA4EC00F01D
:100340000E0EA4EC00F0150EA4EC00F0040EA4ECCC
:1003500000F0000EA4EC00F0000EA4EC00F0040E7F
:10036000A4EC00F00E0EA4EC00F0150EA4EC00F0CE
:10037000040EA4EC00F0040EA4EC00F0040EA4ECB7
:1003800000F0040EA4EC00F00E0EA4EC00F0150E2C
:10039000A4EC00F0040EA4EC00F0040EA4EC00F0B9
:1003A000040EA4EC00F0040EA4EC00F0000EA4EC8B
:1003B00000F0150EA4EC00F0040EA4EC00F0040E06
:1003C000A4EC00F0040EA4EC00F0040EA4EC00F089
:1003D000000EA4EC00F0000EA4EC00F0000EA4EC63
:1003E00000F0040EA4EC00F0040EA4EC00F0040EE7
:1003F000A4EC00F0000EA4EC00F0000EA4EC00F061
:10040000000EA4EC00F0000EA4EC00F0000EA4EC32
:1004100000F01200000EE88CA0EC00F011EC02F0ED
:100420001200030EA4EC00F00F0EA4EC00F00F0E6F
:10043000A4EC00F01F0EA4EC00F01F0EA4EC00F0E2
:100440001D0EA4EC00F0190EA4EC00F01B0EA4ECA1
:1004500000F0100EA4EC00F01C0EA4EC00F01C0E3A
:10046000A4EC00F01E0EA4EC00F01E0EA4EC00F0B4
:100470000E0EA4EC00F0060EA4EC00F0160EA4EC98
:1004800000F00F0EA4EC00F00E0EA4EC00F0070E2E
:10049000A4EC00F0040EA4EC00F0050EA4EC00F0B7
:1004A000050EA4EC00F0070EA4EC00F0030EA4EC83
:1004B00000F01C0EA4EC00F01C0EA4EC00F0180ED2
:1004C000A4EC00F0080EA4EC00F0080EA4EC00F080
:1004D000080EA4EC00F0180EA4EC00F0100EA4EC32
:1004E00000F01C0EA4EC00F0100EA4EC00F0100EB6
:1004F000A4EC00F0000EA4EC00F0000EA4EC00F060
:10050000020EA4EC00F0060EA4EC00F0040EA4EC25
:1005100000F00F0EA4EC00F0030EA4EC00F0030EAC
:10052000A4EC00F0010EA4EC00F0010EA4EC00F02D
:10053000110EA4EC00F0190EA4EC00F0090EA4ECCE
:1005400000F0100EA4EC00F0110EA4EC00F0180E58
:10055000A4EC00F01B0EA4EC00F01A0EA4EC00F0CA
:100560001A0EA4EC00F0180EA4EC00F01C0EA4EC83
:1005700000F0030EA4EC00F0030EA4EC00F0070E54
:10058000A4EC00F0170EA4EC00F0170EA4EC00F0A1
:10059000170EA4EC00F0070EA4EC00F00F0EA4EC74
:1005A00000F01200010EA0EC00F037EC00F0010E9C
:1005B000E88EA0EC00F0000EA4EC00F0010EA4EC1C
:1005C00000F0040EA4EC00F0050EA4EC00F0060E02
:1005D000E88EA0EC00F0470EA4EC00F0410EA4EC75
:1005E00000F04D0EA4EC00F0450EA4EC00F00B0E54
:1005F000E88EA0EC00F0000EA4EC00F0010EA4ECDC
:1006000000F0040EA4EC00F0050EA4EC00F0100EB7
:10061000E88EA0EC00F0470EA4EC00F0410EA4EC34
:1006200000F04D0EA4EC00F0450EA4EC00F0150E09
:10063000E88EA0EC00F0000EA4EC00F0010EA4EC9B
:1006400000F0040EA4EC00F0050EA4EC00F0410E46
:10065000E88EA0EC00F0020EA4EC00F0030EA4EC77
:1006600000F0060EA4EC00F0070EA4EC00F0460E1D
:10067000E88EA0EC00F04F0EA4EC00F0560EA4ECB7
:1006800000F0450EA4EC00F0520EA4EC00F04B0E6E
:10069000E88EA0EC00F0020EA4EC00F0030EA4EC37
:1006A00000F0060EA4EC00F0070EA4EC00F0500ED3
:1006B000E88EA0EC00F04F0EA4EC00F0560EA4EC77
:1006C00000F0450EA4EC00F0520EA4EC00F0550E24
:1006D000E88EA0EC00F0020EA4EC00F0030EA4ECF7
:1006E00000F0060EA4EC00F0070EA4EC00F0F00EF3
:1006F000086E31EC00F031EC00F0180EA0EC00F0C8
:10070000083E79EF03F0F00E086E31EC00F031ECAA
:1007100000F01C0EA0EC00F0083E85EF03F0120084
:10072000010EA0EC00F037EC00F0440EE88EA0ECD7
:1007300000F04C0EA4EC00F0450EA4EC00F0560EB8
:10074000A4EC00F0450EA4EC00F04C0EA4EC00F07C
:100750004A0EE88EA0EC00F0550EA4EC00F0500E0E
:10076000A4EC00F0050E026E010EA0EC00F037ECD8
:1007700000F0020EE88EA0EC00F0000EA4EC00F0F9
:1007800031EC00F00D0EE88EA0EC00F0000EA4ECB1
:1007900000F031EC00F0020EE88EA0EC00F0010E4B
:1007A000A4EC00F031EC00F00D0EE88EA0EC00F0AF
:1007B000010EA4EC00F031EC00F0020EE88EA0EC8B
:1007C00000F0020EA4EC00F031EC00F00D0EE88E0B
:1007D000A0EC00F0020EA4EC00F031EC00F0020EF0
:1007E000E88EA0EC00F0030EA4EC00F031EC00F079
:1007F0000D0EE88EA0EC00F0030EA4EC00F031EC3E
:1008000000F0020EE88EA0EC00F0040EA4EC00F064
:1008100031EC00F00D0EE88EA0EC00F0040EA4EC1C
:1008200000F031EC00F0020EE88EA0EC00F0050EB6
:10083000A4EC00F031EC00F00D0EE88EA0EC00F01E
:10084000050EA4EC00F031EC00F0022EB4EF03F042
:100850001200010EA0EC00F037EC00F0210EA4EC29
:1008600000F04E0EA4EC00F0450EA4EC00F0570E84
:10087000A4EC00F0050EE88EA0EC00F0480EA4EC0D
:1008800000F0490EA4EC00F0470EA4EC00F0480E76
:10089000A4EC00F00A0EE88EA0EC00F0530EA4ECDD
:1008A00000F0430EA4EC00F04F0EA4EC00F0520E4A
:1008B000A4EC00F0450EA4EC00F0210EA4EC00F036
:1008C000400EE88EA0EC00F02D0EA4EC00F02D0EF2
:1008D000A4EC00F02D0EA4EC00F02D0EA4EC00F022
:1008E0002D0EA4EC00F02D0EA4EC00F03E0EA4ECB6
:1008F00000F0300EA4EC00F00550A4EC00F03C0E2B
:10090000A4EC00F02D0EA4EC00F02D0EA4EC00F0F1
:100910002D0EA4EC00F02D0EA4EC00F02D0EA4EC96
:1009200000F02D0EA4EC00F01200010EA0EC00F07F
:1009300037EC00F0040EE88EA0EC00F0540EA4ECAE
:1009400000F0490EA4EC00F04D0EA4EC00F0450EB2
:10095000A4EC00F0530EA4EC00F00A0EE88EA0EC1C
:1009600000F0550EA4EC00F0500EA4EC00F0470E81
:10097000E88EA0EC00F0000EA4EC00F0010EA4EC58
:1009800000F01200010EA0EC00F037EC00F0530E66
:10099000A4EC00F0430EA4EC00F04F0EA4EC00F029
:1009A000520EA4EC00F0450EA4EC00F03A0EA4ECBC
:1009B00000F0420EE88EA0EC00F02D0EA4EC00F04A
:1009C0002D0EA4EC00F02D0EA4EC00F03E0EA4ECD5
:1009D00000F00550A4EC00F0300EA4EC00F0300E56
:1009E000A4EC00F03C0EA4EC00F02D0EA4EC00F002
:1009F0002D0EA4EC00F02D0EA4EC00F01200010E60
:100A0000A0EC00F037EC00F0530EA4EC00F0430E25
:100A1000A4EC00F04F0EA4EC00F0520EA4EC00F099
:100A2000450EA4EC00F0530EA4EC00F03A0EA4EC3A
:100A300000F0300EA4EC00F0340EA4EC00F02D0E0B
:100A4000A4EC00F0300EA4EC00F0360EA4EC00F0A4
:100A50002D0EA4EC00F0310EA4EC00F0300EA4EC4E
:100A600000F0400EE88EA0EC00F0420EA4EC00F086
:100A7000450EA4EC00F0530EA4EC00F0540EA4ECD0
:100A800000F0450EE88EA0EC00F0530EA4EC00F050
:100A9000430EA4EC00F04F0EA4EC00F0520EA4ECB8
:100AA00000F0450EA4EC00F02D0EA4EC00F03E0E7C
:100AB000A4EC00F0310EA4EC00F0300EA4EC00F039
:100AC0001200FB0E8A6E81A083EC05F081A28CECF3
:100AD00005F0F70E8A6E81A098EC05F081A2A4ECD7
:100AE00005F0EF0E8A6E81A2B0EC05F01200FB0E4D
:100AF0008A6E81A0BCEF05F0EF0E8A6E81A0C5EF73
:100B000005F077EF05F081A083EF05F0300E056E5C
:100B100042EC00F00A841200898481A28CEF05F077
:100B20008994066A068442EC00F0CEEC05F01200CF
:100B3000898681A098EF05F08996066A068642ECC0
:100B400000F0CEEC05F01200898081A2A4EF05F040
:100B50008990066A068042EC00F0CEEC05F01200A7
:100B6000898281A2B0EF05F08992066A068242EC82
:100B700000F0CEEC05F0120081A0BCEF05F042ECD5
:100B800000F0FDEC05F078EF06F081A0C5EF05F070
:100B900042EC00F00AEC06F06AEF06F00750065C43
:100BA000E850D8A40A80D8B40A821200898A37ECA7
:100BB00000F037EC00F037EC00F037EC00F037ECE9
:100BC00000F0899A1200898837EC00F037EC00F0C9
:100BD00037EC00F037EC00F037EC00F089981200A9
:100BE000898437EC00F037EC00F037EC00F037EC9C
:100BF00000F037EC00F089941200898637EC00F0A1
:100C000037EC00F037EC00F037EC00F037EC00F098
:100C100089961200898037EC00F037EC00F037EC51
:100C200000F037EC00F037EC00F089901200898278
:100C300037EC00F037EC00F037EC00F037EC00F068
:100C400037EC00F089921200096ABC50E8B00980C4
:100C5000E8B20982076A0950D8A431EF06F007808C
:100C600012000108D8A237EF06F00782120001082F
:100C7000D8A23DEF06F007841200078612000BB0E1
:100C80000AEC06F00BB217EC06F00BB4F0EC05F032
:100C90000BB6FDEC05F01200010E116E020E126E85
:100CA000010E136E080E146E080E156E020E166EEF
:100CB000010E176E040E186E040E196E080E1A6ED1
:100CC0001200C1EC00F04CEC06F00A6AD5EC00F022
:100CD00077EF05F0FFEC04F0FB0E8A6E81B06EEF4B
:100CE00006F081A071EF06F042EC00F065EF06F02F
:100CF000300E056EC2EC04F011C00BF03FEC06F0B4
:100D000011C007F064EC00F00AB065EF06F00A6A63
:100D1000310E056E93EC00F011C00BF03FEC06F0C5
:100D200037EC00F012C00BF03FEC06F011C007F0FA
:100D300064EC00F00AB065EF06F00A6A12C007F032
:100D400064EC00F00AB065EF06F00A6A320E056E38
:100D500093EC00F011C00BF03FEC06F037EC00F024
:100D600012C00BF03FEC06F037EC00F013C00BF0B4
:100D70003FEC06F011C007F064EC00F00AB065EF3C
:100D800006F00A6A12C007F064EC00F00AB065EFE2
:100D900006F00A6A13C007F064EC00F00AB065EFD1
:100DA00006F00A6A330E056E93EC00F011C00BF0EA
:100DB0003FEC06F037EC00F012C00BF03FEC06F011
:100DC00037EC00F013C00BF03FEC06F037EC00F00E
:100DD00014C00BF03FEC06F011C007F064EC00F01B
:100DE0000AB065EF06F00A6A12C007F064EC00F082
:100DF0000AB065EF06F00A6A13C007F064EC00F071
:100E00000AB065EF06F00A6A14C007F064EC00F05F
:100E10000AB065EF06F00A6A340E056E93EC00F036
:100E200011C00BF03FEC06F037EC00F012C00BF0F5
:100E30003FEC06F037EC00F013C00BF03FEC06F08F
:100E400037EC00F014C00BF03FEC06F037EC00F08C
:100E500015C00BF03FEC06F011C007F064EC00F099
:100E60000AB065EF06F00A6A12C007F064EC00F001
:100E70000AB065EF06F00A6A13C007F064EC00F0F0
:100E80000AB065EF06F00A6A14C007F064EC00F0DF
:100E90000AB065EF06F00A6A15C007F064EC00F0CE
:100EA0000AB065EF06F00A6A350E056E93EC00F0A5
:100EB00011C00BF03FEC06F037EC00F012C00BF065
:100EC0003FEC06F037EC00F013C00BF03FEC06F0FF
:100ED00037EC00F014C00BF03FEC06F037EC00F0FC
:100EE00015C00BF03FEC06F037EC00F016C00BF02D
:100EF0003FEC06F011C007F064EC00F00AB065EFBB
:100F000006F00A6A12C007F064EC00F00AB065EF60
:100F100006F00A6A13C007F064EC00F00AB065EF4F
:100F200006F00A6A14C007F064EC00F00AB065EF3E
:100F300006F00A6A15C007F064EC00F00AB065EF2D
:100F400006F00A6A16C007F064EC00F00AB065EF1C
:100F500006F00A6A360E056E93EC00F011C00BF035
:100F60003FEC06F037EC00F012C00BF03FEC06F05F
:100F700037EC00F013C00BF03FEC06F037EC00F05C
:100F800014C00BF03FEC06F037EC00F015C00BF08E
:100F90003FEC06F037EC00F016C00BF03FEC06F02B
:100FA00037EC00F017C00BF03FEC06F011C007F073
:100FB00064EC00F00AB065EF06F00A6A12C007F0B0
:100FC00064EC00F00AB065EF06F00A6A13C007F09F
:100FD00064EC00F00AB065EF06F00A6A14C007F08E
:100FE00064EC00F00AB065EF06F00A6A15C007F07D
:100FF00064EC00F00AB065EF06F00A6A16C007F06C
:1010000064EC00F00AB065EF06F00A6A17C007F05A
:1010100064EC00F00AB065EF06F00A6A370E056E60
:1010200093EC00F011C00BF03FEC06F037EC00F051
:1010300012C00BF03FEC06F037EC00F013C00BF0E1
:101040003FEC06F037EC00F014C00BF03FEC06F07C
:1010500037EC00F015C00BF03FEC06F037EC00F079
:1010600016C00BF03FEC06F037EC00F017C00BF0A9
:101070003FEC06F037EC00F018C00BF03FEC06F048
:1010800011C007F064EC00F00AB065EF06F00A6AE0
:1010900012C007F064EC00F00AB065EF06F00A6ACF
:1010A00013C007F064EC00F00AB065EF06F00A6ABE
:1010B00014C007F064EC00F00AB065EF06F00A6AAD
:1010C00015C007F064EC00F00AB065EF06F00A6A9C
:1010D00016C007F064EC00F00AB065EF06F00A6A8B
:1010E00017C007F064EC00F00AB065EF06F00A6A7A
:1010F00018C007F064EC00F00AB065EF06F00A6A69
:10110000380E056E93EC00F011C00BF03FEC06F0CA
:1011100037EC00F012C00BF03FEC06F037EC00F0BB
:1011200013C00BF03FEC06F037EC00F014C00BF0EE
:101130003FEC06F037EC00F015C00BF03FEC06F08A
:1011400037EC00F016C00BF03FEC06F037EC00F087
:1011500017C00BF03FEC06F037EC00F018C00BF0B6
:101160003FEC06F037EC00F019C00BF03FEC06F056
:1011700011C007F064EC00F00AB065EF06F00A6AEF
:1011800012C007F064EC00F00AB065EF06F00A6ADE
:1011900013C007F064EC00F00AB065EF06F00A6ACD
:1011A00014C007F064EC00F00AB065EF06F00A6ABC
:1011B00015C007F064EC00F00AB065EF06F00A6AAB
:1011C00016C007F064EC00F00AB065EF06F00A6A9A
:1011D00017C007F064EC00F00AB065EF06F00A6A89
:1011E00018C007F064EC00F00AB065EF06F00A6A78
:1011F00019C007F064EC00F00AB065EF06F00A6A67
:10120000390E056E93EC00F011C00BF03FEC06F0C8
:1012100037EC00F012C00BF03FEC06F037EC00F0BA
:1012200013C00BF03FEC06F037EC00F014C00BF0ED
:101230003FEC06F037EC00F015C00BF03FEC06F089
:1012400037EC00F016C00BF03FEC06F037EC00F086
:1012500017C00BF03FEC06F037EC00F018C00BF0B5
:101260003FEC06F037EC00F019C00BF03FEC06F055
:1012700037EC00F01AC00BF03FEC06F011C007F09D
:1012800064EC00F00AB065EF06F00A6A12C007F0DD
:1012900064EC00F00AB065EF06F00A6A13C007F0CC
:1012A00064EC00F00AB065EF06F00A6A14C007F0BB
:1012B00064EC00F00AB065EF06F00A6A15C007F0AA
:1012C00064EC00F00AB065EF06F00A6A16C007F099
:1012D00064EC00F00AB065EF06F00A6A17C007F088
:1012E00064EC00F00AB065EF06F00A6A18C007F077
:1012F00064EC00F00AB065EF06F00A6A19C007F066
:1013000064EC00F00AB065EF06F00A6A1AC007F054
:1013100064EC00F00AB065EF06F00A6A410E056E53
:0413200093EC00F05A
:00000001FF
