:020000040000FA
:0400000018EF00F005
:020004000000FA
:020008001000E6
:020018001000D6
:0A0030000F0E5C6B5E6B936A956A1D
:100040008A9262EC00F0380E3BEC00F00F0E3BECB5
:1000500000F0070E3BEC00F0010E3BEC00F0450E0B
:10006000E88E3BEC00F0630E3FEC00F0340E3FEC0A
:1000700000F039EF00F08A908A9447EF00F08A8010
:100080008A9447EF00F08A808A8447EF00F08A82E2
:100090008C6E00008A928C6A4FEC00F01200958EF4
:1000A0008A908A848A8200005CEC00F083BE54EF60
:1000B00000F08A92959E1200210E106E102E5EEFB7
:1000C00000F01200000E106E800E116E102E66EF02
:0A00D00000F0112E66EF00F01200A0
:00000001FF
