:020000040000FA
:0400000018EF00F005
:020004000000FA
:020008001000E6
:020018001000D6
:0A0030000F0E5C6B5E6B936A956A1D
:100040008A925CEC00F0380E3AEC00F00F0E3AECBD
:1000500000F0070E3AEC00F0010E3AEC00F0C50E8D
:100060003AEC00F0630E3EEC00F0340E3EEC00F093
:1000700038EF00F08A908A9446EF00F08A808A94E4
:1000800046EF00F08A808A8446EF00F08A828C6E08
:1000900000008A928C6A4EEC00F012008A908A84EA
:1000A00056EC00F083BE4EEF00F01200210E106EF1
:1000B000102E58EF00F01200000E106E800E116E20
:0E00C000102E60EF00F0112E60EF00F0120025
:00000001FF
